:100000000C94B6040C94DE040C94DE040C94DE0410
:100010000C94DE040C94DE040C94DE040C94DE04D8
:100020000C94DE040C94DE040C948B0D0C94FA0DED
:100030000C94DE040C94DE040C94DE040C94DE04B8
:100040000C94DE040C94DE040C94DE040C94DE04A8
:100050000C94DE040C94DE040C94DE040C942C103E
:100060000C94DE040C94DE040C94DE040C94DE0488
:100070000C94DE040C94DE040C94DE040C94DE0478
:100080000C9476100C94DE040C94DE040C94DE04C4
:100090000C94DE040C94DE040C94DE040C94DE0458
:1000A0000C94DE040C94DE040C94DE0400000000CA
:1000B000003E5B4F5B3E3E6B4F6B3E1C3E7C3E1CEE
:1000C000183C7E3C181C577D571C1C5E7F5E1C0034
:1000D000183C1800FFE7C3E7FF0018241800FFE7EB
:1000E000DBE7FF30483A060E2629792926407F05AE
:1000F0000507407F05253F5A3CE73C5A7F3E1C1CC4
:1001000008081C1C3E7F14227F22145F5F005F5F83
:1001100006097F017F006689956A6060606060946F
:10012000A2FFA29408047E040810207E2010080874
:100130002A1C08081C2A08081E101010100C1E0C7F
:100140001E0C30383E3830060E3E0E060000000011
:100150000000005F00000007000700147F147F14F8
:10016000242A7F2A1223130864623649562050003D
:1001700008070300001C2241000041221C002A1C29
:100180007F1C2A08083E0808008070300008080814
:100190000808000060600020100804023E51494534
:1001A0003E00427F400072494949462141494D3352
:1001B0001814127F1027454545393C4A49493141B9
:1001C000211109073649494936464949291E000087
:1001D00014000000403400000008142241141414DC
:1001E0001414004122140802015909063E415D59C8
:1001F0004E7C1211127C7F494949363E41414122D1
:100200007F4141413E7F494949417F090909013EFA
:10021000414151737F0808087F00417F4100204021
:10022000413F017F081422417F404040407F021C33
:10023000027F7F0408107F3E4141413E7F0909094A
:10024000063E4151215E7F09192946264949493216
:1002500003017F01033F4040403F1F2040201F3FDC
:100260004038403F63140814630304780403615961
:10027000494D43007F4141410204081020004141A3
:10028000417F04020102044040404040000307084F
:100290000020545478407F2844443838444444284B
:1002A000384444287F385454541800087E090218F2
:1002B000A4A49C787F0804047800447D400020407A
:1002C000403D007F1028440000417F40007C0478BE
:1002D00004787C080404783844444438FC18242406
:1002E0001818242418FC7C08040408485454542486
:1002F00004043F44243C4040207C1C2040201C3C03
:100300004030403C44281028444C9090907C4464F9
:10031000544C44000836410000007700000041368C
:10032000080002010204023C2623263C1EA1A16112
:10033000123A4040207A3854545559215555794144
:100340002154547841215554784020545579400C1B
:100350001E527212395555555939545454593955FC
:100360005454580000457C410002457D420001453F
:100370007C40F0292429F0F0282528F07C545545AC
:10038000002054547C547C0A097F4932494949323F
:100390003248484832324A4848303A4141217A3A54
:1003A00042402078009DA0A07D39444444393D401E
:1003B00040403D3C24FF2424487E4943662B2FFCCB
:1003C0002F2BFF0929F620C0887E09032054547979
:1003D000410000447D413048484A32384040227A4A
:1003E000007A0A0A727D0D19317D2629292F2826C7
:1003F0002929292630484D402038080808080808CF
:100400000808382F10C8ACBA2F102834FA00007B27
:10041000000008142A142222142A1408950022002D
:1004200095AA005500AAAA55AA55AA000000FF00E7
:10043000101010FF00141414FF001010FF00FF1024
:1004400010F010F0141414FC001414F700FF000056
:10045000FF00FF1414F404FC141417101F10101FD5
:10046000101F1414141F00101010F0000000001FC3
:10047000101010101F10101010F010000000FF10CE
:100480001010101010101010FF10000000FF1400CA
:1004900000FF00FF00001F10170000FC04F41414FC
:1004A0001710171414F404F40000FF00F7141414C8
:1004B00014141414F700F7141414171410101F1048
:1004C0001F141414F4141010F010F000001F101F6B
:1004D0000000001F14000000FC140000F010F010D9
:1004E00010FF10FF141414FF141010101F00000050
:1004F00000F010FFFFFFFFFFF0F0F0F0F0FFFFFF54
:100500000000000000FFFF0F0F0F0F0F38444438AA
:10051000447C2A2A3E147E02020606027E027E02E5
:1005200063554941633844443C04407E201E200604
:10053000027E020299A5E7A5991C2A492A1C4C7241
:1005400001724C304A4D4D303048784830BC625AC8
:10055000463D3E494949007E0101017E2A2A2A2A58
:100560002A44445F444440514A444040444A514034
:100570000000FF0103E080FF000008086B6B0836F5
:1005800012362436060F090F060000181800000066
:100590001010003040FF0101001F01011E00191D55
:1005A0001712003C3C3C3C000000000000B0000082
:1005B000A170E150964F26900F1D070C0096690020
:1005C0004AE44A0048444000806810000F99FB8FBD
:1005D0009DBDBBFB77D4D4DF1F1A1AFE7F5D5DFF84
:1005E000805A0000A0A4AA0010BA3400FF5953F3A7
:1005F000FF9B9B9EFFB9B996FF9595D19FF4940FF1
:10060000FC295F91FF1838F8FF9294FFFF95D5F70A
:10061000BFB5DDD7F18F81F1F788C8F779C6467984
:1006200009FD9B090196F800828182805071620069
:100630007756560076763700A2B773010772060028
:100640007827500073347400775176007F55F70097
:1006500047711000324772007364730015A2750071
:1006600061679400009F6060F4F2F6F2D5F08D149B
:10067000A1C881CFD9F1AF20006D1C00FC3F3FFE27
:100680008000FFFF1FF8C0FF00010F7EF0FC1F037A
:10069000000000FFFFF0FC8F0300FFFF00FFFF1FC3
:1006A000F8C0FF00FFFF0303FFFE00000000FEFE96
:1006B0000307FEF800FFFF434303000000FEFE03B4
:1006C000071E0000FC3F3FFE8000FFFFC3E3FFBEAC
:1006D00000000000E0FF0FFFF00000FFFF7EE0FFE2
:1006E000FF00FFFF0307FEF81F1F02021F1F009FEE
:1006F0009F00011F9F808000009F1F8080000000DE
:100700009F9F00071F9C801F1F809F1F80811F9F2E
:10071000809F1F18981F8F808080800F1F18181FC0
:1007200003009F9F0000008080808F9F181C0F8017
:100730009F9F82829F9F809F9F80001F9F800000BD
:10074000989F0702079F9C001F1F80871F1F809F85
:100750001F18181F07000000000080FE1F1FFFC0A9
:1007600000FFFF0FFCE0FF0000073FF8FE0F010055
:100770000000FFFF78FEC70100FFFF00FFFF0FFC36
:10078000E0FF00FFFF0101FFFF00000000FFFF018D
:1007900003FFFC00FFFF2121010000000101FFFF1A
:1007A0000101FFFF6171FFDF00FFFF0000FFFF009D
:1007B000FFFF01038F0000FFFF78FEC7010000006C
:1007C000000000000000000F0F01010F0F000F0FCD
:1007D00000000F0F000000000F0F00000000000FCE
:1007E0000F00030F0E000F0F000F0F00000F0F0080
:1007F0000F0F0C0C0F0700000000070F0C0C0F016F
:10080000000F0F00000000000000000F0F00000F9D
:100810000F00000F0F00030F0C0C0F0700070F0C49
:100820000E0700000F0F00030F0E0000000000C4B1
:10083000001100A5001100F700110083001100C491
:10084000001100A5001100F7001100830011000045
:1008500080C4002200060144004A0144000B0288C3
:10086000000080C40022000B0288000B0288000BED
:100870000288000B0288008801CC00000044008838
:100880000188004A0188004A0188004A0188004A1C
:10089000018800060110010000880006018800069A
:1008A000018800060188000601880006018800060C
:1008B0000188002601CC00000044000601CC0000A5
:1008C0000044000601CC000000CC00060144004AB0
:1008D0000144000B0288000080A5002200AF002226
:1008E00000C4002200AF00220000804A011100264F
:1008F00001110006011100A50011000080080B0085
:1009000002020200000904000001020200000524A6
:10091000001001052401010104240206052406003B
:10092000010705810310004009040100020A0000CC
:100930000007050202400000070583024000000492
:1009400003090412010002EF020140412336800036
:10095000010102030141726475696E6F204C4C43C2
:100960000041726475626F790000D71011241FBEB8
:10097000CFEFDAE0DEBFCDBF11E0A0E0B1E0EAE307
:10098000FEE302C005900D92A638B107D9F726E024
:10099000A6E8B1E001C01D92AC34B207E1F714E063
:1009A000C6EBD4E004C02197FE010E94231DC53B85
:1009B000D107C9F70E942B110C941B1F0C94000047
:1009C00080919901089570E020912702AB01421BAC
:1009D00051099A0157FF02C02F5F3F4F3595279568
:1009E000820F931F2AE030E0261B370B28173907A8
:1009F00034F48637910524F086E790E00895C90124
:100A00000895CF92DF92EF92FF92CF93DF93C5E2EA
:100A1000D2E06A818881681B770B072E000C880B57
:100A2000990B0E943D1A6B017C016E8170E090E091
:100A300080E00E943D1A20E030E04FE753E40E943E
:100A4000531C9B01AC01C701B6010E94781A0E9499
:100A5000CC1C862FDF91CF91FF90EF90DF90CF904D
:100A60000895CF93C09127020E940105909125021D
:100A70004C2F481B550B9A01291B3109C81B8C2F81
:100A8000891B243031050CF083E0CF910895CF937A
:100A9000C09128020E9431054C2F481B550B453050
:100AA000510544F0C550C81B8C2F4D3051051CF02A
:100AB00088E001C080E0CF910895EFE2F2E080E0AD
:100AC000A0E0B8E000800EBC8111012C1197A0FDC0
:100AD000FDCF0192B9F70DB40895FC018091C401D6
:100AE000882311F13FB7F89482E08093E9002091C8
:100AF000F200822F90E01816190614F481E090E0BD
:100B0000882339F0289844E64093C3014091F100CE
:100B10004083222339F02091F200211103C02BE6FB
:100B20002093E8003FBF08958FEF9FEF08952FB700
:100B3000F89483E08093E9009091E800892F807217
:100B400095FF04C09091F20080E4891B2FBF0895A7
:100B50008091BB0181110DC082E08093B70184E0D8
:100B60008093B8011092BA011092B90181E080938C
:100B7000BB0187EB91E00895CF93DF931F92CDB730
:100B8000DEB76983DC01ED91FC910280F381E02DF9
:100B900041E050E0BE016F5F7F4F09950F90DF91FC
:100BA000CF91089583E08093E9008091F20088233B
:100BB00019F08AE38093E80008950E94970590E079
:100BC0000895CF93DF931F92CDB7DEB7FC018485E4
:100BD000958597FD08C02FEF3FEF358724870F904D
:100BE000DF91CF910895CE0101960E946D05019786
:100BF00019F4898190E0F3CF8FEF9FEFF0CF0F933F
:100C00001F93CF93DF931F92CDB7DEB78C01FC010A
:100C10008485958597FF0BC0CE0101960E946D05D6
:100C2000019771F4898190E0F80195878487F80134
:100C3000848595850F90DF91CF911F910F91089535
:100C40008FEF9FEFF1CFFC018485958597FD0BC059
:100C50009FB7F89482E08093E9008091F2009FBFF3
:100C600090E0019608959FB7F89482E08093E900A0
:100C70008091F2009FBF90E008954091B1015091A2
:100C8000B2012091AF013091B00142175307B4F483
:100C90009091E8009570E1F39091E80092FD19C001
:100CA0008093F1008091B1019091B20101968F7310
:100CB0009927892B19F48EEF8093E8008091B10178
:100CC0009091B20101969093B2018093B10181E0BD
:100CD000089580E00895EF92FF920F931F93CF93B2
:100CE000DF93F82E192FE62E042F81E0860F880F50
:100CF0000E943D0683E00E943D06CF2DD12FEC0ED1
:100D0000FD2EF11CCE15DF05B9F007FF13C0FE0163
:100D100084910E943D06182F80E00E943D068123A9
:100D200021968111EFCFDF91CF911F910F91FF900D
:100D3000EF9008958881EDCF81E0F5CFDF92EF92BB
:100D4000FF920F931F93CF93DF93D82E8A01EB016D
:100D50007B01E40EF51ECE15DF0559F0D7FE12C05B
:100D6000FE0184910E943D0621968111F4CF0FEF80
:100D70001FEFC801DF91CF911F910F91FF90EF906E
:100D8000DF9008958881EECF0F931F93CF93DF9369
:100D90001F92CDB7DEB782E0898342E450E06DEF69
:100DA00078E080E80E949E060E94A805DC01129669
:100DB0000D911C910115110589F0D801ED91FC915F
:100DC0000280F381E02DBE016F5F7F4FC80109955E
:100DD00097FD04C0F80100851185ECCF89810F9043
:100DE000DF91CF911F910F910895615030F02091C4
:100DF000F100FC0120830196F8CF289884E68093C7
:100E0000C3010895AF92BF92CF92DF92EF92FF920B
:100E10000F931F93CF93DF936C017B018B01040F22
:100E2000151FEB015E01AE18BF08C017D10759F0BE
:100E30006991D601ED91FC910190F081E02DC60100
:100E40000995892B79F7C501DF91CF911F910F91FA
:100E5000FF90EF90DF90CF90BF90AF9008953FB795
:100E6000F8948091950190919601A0919701B0918D
:100E7000980126B5A89B05C02F3F19F00196A11D2A
:100E8000B11D3FBFBA2FA92F982F8827BC01CD01D4
:100E9000620F711D811D911D42E0660F771F881F33
:100EA000991F4A95D1F708958F929F92AF92BF9262
:100EB000CF92DF92EF92FF926B017C010E942F078D
:100EC0004B015C01C114D104E104F104B9F00E94AA
:100ED0002F07681979098A099B09683E73408105C3
:100EE000910580F321E0C21AD108E108F10888EEEB
:100EF000880E83E0981EA11CB11CE4CFFF90EF90F8
:100F0000DF90CF90BF90AF909F908F9008958F9279
:100F10009F92AF92BF92CF92DF92EF92FF920F9388
:100F20001F93CF93DF936C017B018A0180910E01A7
:100F3000882309F45CC08091C401882309F457C058
:100F40008091B60180FF05C08091E00082608093AF
:100F5000E000E801B12C8AEFA82E93E0892E2AE365
:100F6000922E209711F4BB20D9F10E949705811190
:100F70000AC0AA94AA20D9F161E070E080E090E074
:100F80000E945407EECF8C171D0611F00CF08C2F29
:100F90009FB7F8948092E9002091E80025FD02C0F7
:100FA0009FBFDFCF282F30E0C21BD30BF70181504A
:100FB00020F041914093F100FACFE20EF31EBB20E6
:100FC00021F09092E800B12CEBCF8091E80085FDF4
:100FD000E7CF9092E800BB24B394209709F3F3CFB6
:100FE0005D9884E68093B501101611063CF081E00F
:100FF00090E0F6019383828310E000E0C801DF9166
:10100000CF911F910F91FF90EF90DF90CF90BF9005
:10101000AF909F908F9008956F927F928F929F9242
:10102000AF92BF92CF92DF92EF92FF920F931F93F6
:10103000CF93DF934C017B01C22F102F98E0A92E94
:10104000B12C642E669466946694712CCA018770E4
:101050009927892B79F5D40117962D913C91C701D9
:101060009927B9010E94FB1C269DF001279DF00DD8
:10107000369DF00D11248E0F9F1FD4011596ED9112
:10108000FC91E80FF91F2081111112C0C095C223F5
:10109000C083DF91CF911F910F91FF90EF90DF9070
:1010A000CF90BF90AF909F908F907F906F9008955A
:1010B000C22BEECFD0E04770C42ED12C83E0660C5B
:1010C000771C8A95E1F79E0101C0220F4A95EAF745
:1010D000012FA301B701C4010E940C08A301485FBE
:1010E0005F4FC5018C199D0902C0D595C7958A959A
:1010F000E2F7A7CF5F926F927F928F929F92AF920B
:10110000BF92CF92DF92EF92FF920F931F93CF93F4
:10111000DF93EC016A30F1F48D859E859C878B8787
:101120008C892F853889820F932F911D988B8F87FB
:1011300081E090E0DF91CF911F910F91FF90EF90B0
:10114000DF90CF90BF90AF909F908F907F906F90E7
:101150005F900895AB84BC84693031F429E0A20E1D
:10116000B11CBC86AB86E4CF3DEFA3163FEFB306C0
:101170000CF45DC08F819885A816B9060CF057C095
:10118000CF84D8888DEFC8168FEFD8060CF44FC0E7
:1011900089859A85C816D9060CF049C0603208F4D2
:1011A0006FE780EE860F9FE9960F9A3118F49FEF54
:1011B000C91AD90A8C3011F08B3119F42FEFC21AE9
:1011C000D20A869534E0839FC00111249C012455E6
:1011D0003A4F7901912C812C162F1170F701E80DEF
:1011E000F91D549011112DC0352D3F70532E35012E
:1011F000680C791C8C81882361F001E089899A89C7
:10120000892B09F000E02FE0A601B301CE010E9476
:101210000C080989252DA601B301CE010E940C08F6
:101220008FEF881A980A94E089169104B9F68B8991
:1012300090E004962B853C85820F931F9C878B87BB
:1012400077CF52948FE05822D2CF20918D01E09138
:101250008B01F0918C01CF01029690938C018093C9
:101260008B01222319F085919491089580819181B9
:101270000895E1E7F0E080818D7F808310929100F6
:101280004698479810928A010895CF92DF92EF9284
:10129000FF92CF93DF930E942509811520E89207E2
:1012A00041F4DF91CF91FF90EF90DF90CF900C94BD
:1012B000390921E020938A01813020E8920751F416
:1012C000809188019091890190938C0180938B018A
:1012D0000E94250997FD05C020918701222309F46A
:1012E0005BC020918601211157C021E020938E011F
:1012F000EC01DF77209709F052C081E080938F01E5
:1013000046983FE9C32E3FE0D32EE12CF12CCAEFE3
:10131000D0E0E0912302F09124020995811103C0ED
:1013200081E080938F0180918E01882329F0809144
:101330008F01882309F446C047980E942509009729
:1013400009F444C09C01DE010E94D71BDC01CB01E3
:1013500029E0B595A795979587952A95D1F710928D
:1013600090002AE020939100D0929900C0929800BA
:101370008093900190939101A0939201B093930177
:1013800080917100826080937100DF91CF91FF9016
:10139000EF90DF90CF90089510928E01A9CF9E011B
:1013A00050E040E060E472E48FE090E00E944C1B6B
:1013B00069017A0181E0C81AD108E108F1081092A8
:1013C0008F01A7CF4699B8CF479AB7CF8FEF9FEF3E
:1013D000DC01C5CF9C01E1E7F0E090819D7F908327
:1013E00081E080938D0130938C0120938B013093A9
:1013F0008901209388010C944509BC0190E080E0AC
:101400000C9454078FB18095807F669B88601C9BED
:10141000846008955C988EBD00000DB407FEFDCF7A
:101420005C9A08959091AB01982329F49091AC01B6
:10143000982381E009F480E00895CF93C82F0E949B
:10144000020A982F9C2381E09C1380E0CF9108959D
:1014500080389105B8F460347105A0F420E191E082
:1014600061FD94E060FD990F62FD9295687F269F73
:10147000D0011124A80FA15DBD4F8C9140FF03C086
:10148000892B8C93089590958923FBCF2F923F92BF
:101490004F925F926F927F928F929F92AF92BF9284
:1014A000CF92DF92EF92FF920F931F93CF93DF9330
:1014B00000D000D0CDB7DEB77C018B01242F30E007
:1014C0003C832B8381E090E05C01A21AB30A1901EE
:1014D000319421943108220C331CB901600F711F23
:1014E00041E0C7010E94280AB8018B819C81681BDA
:1014F000790B41E0C7010E94280A41E0B8018B81C5
:101500009C818E0D9F1D0E94280A41E0B801C701F1
:101510002B813C81821B930B0E94280AD12CC12C69
:1015200081E090E09A8389832B813C81C216D306A7
:101530000CF05DC0B7FC09C0215031093C832B83FE
:1015400032E0230E311CA20CB31C8FEFC81AD80A4C
:1015500029813A812E5F3F4F3A832983A20EB31E21
:1015600037016C0C7D1C41E08B809C80800E911EAD
:10157000B401C3010E94280A27014C185D0841E00C
:10158000B401C2010E94280A41E048018B819C817C
:10159000881A990AB401C3010E94280A41E0B401E3
:1015A000C2010E94280A4601800E911E41E0B4014A
:1015B0006B807C806E0C7F1CC3010E94280A41E076
:1015C000B40127012B813C81421A530AC2010E94B7
:1015D000280A48018C189D0841E0B401C3010E940B
:1015E000280A41E0B401C2010E94280A9DCF0F9051
:1015F0000F900F900F90DF91CF911F910F91FF905F
:10160000EF90DF90CF90BF90AF909F908F907F90A2
:101610006F905F904F903F902F9008958F929F9280
:10162000AF92BF92CF92DF92EF92FF920F931F93F0
:10163000CF93DF936D3089F0C090A901D090AA01BB
:101640006A30D1F41092A8011092A70188E0C80E68
:10165000D11CD092AA01C092A90181E090E0DF9153
:10166000CF911F910F91FF90EF90DF90CF90BF909F
:10167000AF909F908F9008950091A7011091A801BD
:10168000E5E06E9FE0011124C455DF4F4801F12CC5
:10169000F5E0E12CFF1629F0CE010196FE01E49061
:1016A000EC01B12CA12C4E2D4170B6016A0D7B1DB1
:1016B000C4010E94280AE694FFEFAF1ABF0A88E02F
:1016C000A816B10481F7F394EFEF8E1A9E0AF6E0A4
:1016D000FF12DECF0A5F1F4F1093A8010093A701EE
:1016E000BCCFDF92EF92FF920F931F93CF93DF93C4
:1016F0007C01D22E8B01040F111DEB0177FF02C07C
:10170000D0E0C0E0C8010134110514F080E490E09D
:10171000C817D9073CF44D2DBE01C7010E94280A05
:101720002196F0CFDF91CF911F910F91FF90EF9015
:10173000DF9008952F923F924F925F926F927F9227
:101740008F929F92AF92BF92CF92DF92EF92FF92D1
:101750000F931F93CF93DF93EC018B017A018417D2
:10176000950741F56217730709F4CAC0AB01421B24
:10177000530B57FF03C05195419551094F5FB80175
:10178000201731070CF4B90121E0CE01DF91CF9190
:101790001F910F91FF90EF90DF90CF90BF90AF908F
:1017A0009F908F907F906F905F904F903F902F9081
:1017B0000C94710B6217730709F046C06034710511
:1017C00008F09EC0BC01481759070CF4BA01CE19A5
:1017D000DF09D7FF03C0D195C195D109CF5FC60FEF
:1017E000D72FD11D1C161D060CF08AC0603871055C
:1017F0000CF086C077FF02C070E060E0C138D10510
:1018000014F0C0E8D0E0C61B98012770332781E0B0
:1018100001C0880F2A95EAF7F80193E0F595E7955E
:101820009A95E1F7F695FE2FEE27F795E795E60FE7
:10183000F71FE15DFD4FC15008F462C09191DF01D7
:101840001197982B9C93F7CF6901C61AD70AD7FE38
:1018500003C0D194C194D10847018C1A9D0A97FE08
:1018600003C09194819491088C149D0454F49E2D8E
:101870008F2D7901292F382F9C2F8D2FE801092FCB
:10188000182FEC16FD0654F4902F812F8901292F73
:10189000382F9C2F8D2FE701E92EF82E17012C1AD7
:1018A0003D0A2901401A510A57FE03C05194419440
:1018B0005108310137FE03C08FEF681A780A75941A
:1018C00067948FEF021713070CF481E0A82E880F9E
:1018D000BB08EC16FD06A4F041E0BE01C8018C1463
:1018E0009D0414F0B801CE010E94280A64187508FE
:1018F00077FE04C00A0D1B1D620C731C2196E9CFF4
:10190000DF91CF911F910F91FF90EF90DF90CF90DB
:10191000BF90AF909F908F907F906F905F904F900F
:101920003F902F900895CF92DF92EF92FF920F9306
:101930001F93CF93DF937C018C0130E020E050E0D7
:1019400040E0D12CC12CC62FD0E0CC16DD06ACF483
:10195000C114D10439F0F8016281738180819181D1
:101960000E949A0BF8014081518122813381FFEF5F
:10197000CF1ADF0A0C5F1F4FE8CFC150D04CCC0FFD
:10198000DD1FCC0FDD1FCE0DDF1D2A813B8148817D
:101990005981F7016281738180819181DF91CF91BB
:1019A0001F910F91FF90EF90DF90CF900C949A0BC6
:1019B0008F929F92AF92BF92CF92DF92EF92FF925F
:1019C0000F931F93CF93DF93CDB7DEB7A4970FB6D6
:1019D000F894DEBF0FBECDBF10E0F801E80FF91F8D
:1019E000FA83E9837C836B83480F592F511D415043
:1019F0005109F12CFA01EE19FF09FE83ED83788776
:101A00006F835A874987E60EF71EFC86EB865E8752
:101A10004D87260F372F311D21503109D12CF90167
:101A2000EC19FD09F88BEF874C195D095A8B498B2E
:101A30003C8B2B8BB12CA501480F591F5E8B4D8B16
:101A4000388F2F8B9A8F898F2A193B093C8F2B8FC8
:101A50009E8F8D8F060F171F18A30F8FF4018281A1
:101A600093819CA38BA382E491E09AA389A3AE0106
:101A70004F5D5F4F68E0CE0101960E94930CA496E3
:101A80000FB6F894DEBF0FBECDBFDF91CF911F918F
:101A90000F91FF90EF90DF90CF90BF90AF909F900D
:101AA0008F900895089590E080E00895FC010190E2
:101AB0000020E9F73197AF01481B590BBC018FE2B9
:101AC00096E00C9402070F931F93CF93DF93EC01E2
:101AD00088819981009759F02A813B812617370721
:101AE00030F081E0DF91CF911F910F9108958B012C
:101AF0006F5F7F4F0E944E1E009759F09983888335
:101B00001B830A832C813D81232B59F7FC01108212
:101B1000E8CF80E0E7CF1F920F920FB60F9211240B
:101B20008F939F938091E1009091E100937F909338
:101B3000E10083FF0FC01092E90091E09093EB0069
:101B40001092EC0092E39093ED001092C40198E0A3
:101B50009093F00082FF22C093E09093E90090916F
:101B6000F200992319F09AE39093E8009091B5015F
:101B7000992341F09091B50191509093B501911145
:101B800001C05D9A9091C301992341F09091C301E6
:101B900091509093C301911101C0289A84FF18C0FD
:101BA0008091E2008E7E81608093E2008091E1006E
:101BB0008F7E8093E1008091B6018E7E806180935C
:101BC000B6019F918F910F900FBE0F901F901895A7
:101BD00080FFF7CF8091E2008E7E80618093E200EB
:101BE0008091E1008E7E8093E1008091B6018E7E2F
:101BF0008160E5CF1F920F920FB60F921124CF9202
:101C0000DF92EF92FF920F931F932F933F934F9387
:101C10005F936F937F938F939F93AF93BF93EF9354
:101C2000FF93CF93DF93CDB7DEB76C97DEBFCDBF09
:101C30001092E9008091E80083FF25C068E0CE01A2
:101C400045960E94F50682EF8093E8008D8987FF14
:101C500039C09091E80090FFFCCF982F907609F062
:101C600034C19E894F89588D2F89F88C911131C0CC
:101C7000803861F58091B4018093F1001092F100F9
:101C80008EEF8093E8006C960FB6F894DEBF0FBE1F
:101C9000CDBFDF91CF91FF91EF91BF91AF919F9118
:101CA0008F917F916F915F914F913F912F911F91F4
:101CB0000F91FF90EF90DF90CF900F900FBE0F909D
:101CC0001F9018959EEF9093E800C7CF1092F100F7
:101CD000D5CF913059F48111D3CF4130510581F6E0
:101CE0008091B4018D7F8093B401CACF933049F4C1
:101CF0008111C6CF4130510519F68091B40182603F
:101D0000F2CF953041F48091E80080FFFCCF20684D
:101D10002093E300B5CF963009F0A9C00B8D1C8D40
:101D200022E01092E9001092B2011092B101F21279
:101D30002EC01092B0011092AF010E94C4061F8203
:101D400099E09983FA8291E09E8390EA98879AEFCE
:101D500099872091B1013091B201275F3F4F3C83B9
:101D60002B838D831092E9001092B2011092B10181
:101D70001093B0010093AF0149E050E0BE016F5FE6
:101D80007F4F80E00E949E060E94C40679CF109388
:101D9000B0010093AF010E94A805DC0112960D91DD
:101DA0001C910115110509F451C1D801ED91FC9167
:101DB0000480F581E02DBE016B5E7F4FC80109955F
:101DC000009709F03EC1F80100851185EACFF3E0E4
:101DD000FF120EC08F89882309F440C0823061F45D
:101DE00040E867E081E699E00E946B06811148CFE8
:101DF00081E28093EB0047CF813029F440E86BE02B
:101E000085E599E0F1CF833099F70E94A805DC01C0
:101E10001296ED90FC908E010F5F1F4F6801E11448
:101E2000F10479F0D701ED91FC910680F781E02D66
:101E3000B801C7010995080F111DF701E084F1846D
:101E4000EECFD8011C92F60101900020E9F73197FE
:101E5000BF016C197D0940E0C601C6CF6FE379E090
:101E6000FB01449150E080E80E949E0609CF973024
:101E700009F4BECF983021F481E08093F10000CFC7
:101E8000993009F0FDCE837009F0B2CFEAE1F1E0BC
:101E900081E031E096E32191222371F08093E90003
:101EA0003093EB00DF0111972C912093EC0090937D
:101EB000ED008F5F873079F78EE78093EA0010920C
:101EC000EA008F898093C401DBCE8B8D9C8D1092AC
:101ED000E9001092B2011092B1019093B001809389
:101EE000AF01898D811192C08E899D89913A49F403
:101EF000813209F07DCF47E050E067E071E080E09B
:101F0000B3CF913209F074CF833269F48F89988D01
:101F1000B0E0A0E08093030190930401A093050139
:101F2000B0930601ADCE803269F48091E80082FF63
:101F3000FCCF67E087E091E00E94F5068BEF80938D
:101F4000E8009ECE823209F09BCE8F8980930E01ED
:101F5000EEEFFFE7859194918B3F9C4D51F1E0E0CE
:101F6000F8E08091070190910801A0910901B091DA
:101F70000A01803B9440A105B105F1F480910E0166
:101F800080FD1AC0EE3F8AE0F80789F587E797E7FA
:101F900091838083809160008093B30188E19BE00E
:101FA0000FB6F894A895809360000FBE90936000E0
:101FB00067CEEEEFFAE0D5CF8081918187379747E2
:101FC00009F05ECEA89580916000886180936000E2
:101FD0008091B30180936000EE3F2AE0F20789F020
:101FE0008091FE0A9091FF0A9183808349CE80817F
:101FF00091818737980751F29093FF0A8093FE0AE8
:10200000C5CF1092FF0A1092FE0A3ACE0E94A80590
:10201000DC0112960D911C910115110509F4E8CE11
:10202000D801ED91FC910190F081E02DBE016B5E35
:102030007F4FC8010995811123CEF80100851185D4
:10204000EBCF181619060CF41BCED2CEF1E0FF121E
:10205000BECE63E479E004CF1F920F920FB60F92C9
:1020600011242F933F938F939F93AF93BF938091AE
:102070009A0190919B01A0919C01B0919D0130919A
:10208000940123E0230F2D3758F50196A11DB11DB2
:102090002093940180939A0190939B01A0939C01BB
:1020A000B0939D018091950190919601A091970127
:1020B000B09198010196A11DB11D80939501909357
:1020C0009601A0939701B0939801BF91AF919F9112
:1020D0008F913F912F910F900FBE0F901F901895E9
:1020E00026E8230F0296A11DB11DD2CF1F920F9299
:1020F0000FB60F9211242F933F934F935F936F93DB
:102100007F938F939F93AF93BF93EF93FF938091B0
:10211000900190919101A0919201B0919301892B2E
:102120008A2B8B2B09F440C080918F0181110BC049
:1021300088B190E4892788B980918E01882319F0AD
:1021400088B1805888B98091900190919101A091B7
:102150009201B0919301181619061A061B069CF4F9
:102160008091900190919101A0919201B091930181
:102170000197A109B1098093900190939101A093D7
:102180009201B0939301FF91EF91BF91AF919F9115
:102190008F917F916F915F914F913F912F910F9010
:1021A0000FBE0F901F9018950E944509ECCFE5ECEB
:1021B000F1E01382128288EE93E0A0E0B0E0848325
:1021C0009583A683B78384E291E0918380838FEF28
:1021D0009FEF95878487E4E4F6E01382128282E41D
:1021E00091E09183808380EE94E090932402809329
:1021F000230280E090E89093220280932102469887
:102200003E9A47983F9AEFE2F6E01382128286E305
:1022100091E0918380838FE292E09683858380E8CA
:1022200090E09087878380E490E09287818785E0C3
:10223000848B81E0838B16861586108A1786148618
:10224000138681E090E0928B818B1482E5E2F2E0CC
:10225000108611860895CF93DF93CDB7DEB7C255B0
:10226000D1090FB6F894DEBF0FBECDBF789484B508
:10227000826084BD84B5816084BD85B5826085BD82
:1022800085B5816085BD80916E00816080936E0010
:102290001092810080918100826080938100809102
:1022A00081008160809381008091800081608093B3
:1022B00080008091910082608093910080919100D4
:1022C0008160809391008091900081608093900064
:1022D0008091C10084608093C1008091C1008260C0
:1022E0008093C1008091C10081608093C100809182
:1022F000C30081608093C3008091C000826080939E
:10230000C0008091C20081608093C20080917A00F9
:10231000846080937A0080917A00826080937A0052
:1023200080917A00816080937A0080917A00806841
:1023300080937A001092C4011092B4011092B601F9
:102340008091D70081608093D70080EA8093D80085
:1023500089B5806189BD89B5826089BD09B400FEF7
:10236000FDCF61E070E080E090E00E945407809132
:10237000D8008F7C80618093D8008091E000807FBE
:102380008093E0008091E1008E7E8093E1008DE0FB
:102390008093E200559A209A81EC80937C0085B16D
:1023A000806F85B984B1877E84B984B1876E84B922
:1023B0005E9A5F988AB1806D8AB9769A6E9881B379
:1023C000806F81BB899880B38D7080BB80E58CBDA8
:1023D00081E08DBD85E090E00E94FD095F9A85E077
:1023E00090E00E94FD095E985C98ECE6F6E089E7D3
:1023F00096E024912EBD00000DB407FEFDCF31966E
:102400008E179F07B1F75C9A81E8809364008091F2
:1024100065008160809365000E945D0580E80E94F0
:102420001D0A882381F085EA0E940A0A2E982F98B7
:102430002D988091640080628093640081E083BF66
:10244000889513BEFCCF84E00E941D0A882309F4FE
:1024500046C02D9884E80E941D0A8823D9F02D9A41
:1024600088EC90E00E94FD092F9882E090E00E94A5
:10247000361B8F3F29F06FEF82E090E00E943E1BF9
:1024800084EF91E00E94FD092F9A84E80E941D0AC2
:102490008111FBCF84E10E941D0A8823D9F02D9A77
:1024A00088EC90E00E94FD092E9882E090E00E9466
:1024B000361B882329F060E082E090E00E943E1BFA
:1024C00084EF91E00E94FD092E9A84E10E941D0A8A
:1024D0008111FBCF88EC90E00E94FD09B4CF2D9ACA
:1024E00082E090E00E94361B882309F459C03E9A8E
:1024F0003F9A81E08093990182E390E00E94FD0978
:102500000E94020A8111F8CF82E48093000186EADA
:102510000E940A0A8DE08093250286E080932602BD
:1025200082E18093270288E08093280293E09093D1
:10253000290290932A029FE790932B0280932C020A
:1025400087E390E09093A5018093A40183E698E04F
:102550000E94EA099E012F5F3F4F21963FAF2EAFA9
:102560002197AE014B5F5F4F23965FAF4EAF23972E
:102570008FB7F89440919A0150919B0160919C0112
:1025800070919D018FBF1091A001112371F01092E5
:10259000A00180E090E0892B59F30E940000E1CF78
:1025A000109299013E983F98A7CF8091A101942F56
:1025B000981B892F90910001891740F48F5F89172C
:1025C00040F781E083BF889513BEE3CF81E080931D
:1025D000A0014093A10180919E0190919F010196DD
:1025E00090939F0180939E018091AC018093AB01F9
:1025F0000E94020A8093AC01EFE2F2E011111FEF9A
:10260000002411931193119311930394D1F7109215
:10261000AA011092A9011092A8011092A701EFEA55
:10262000F5E091E8915031F08191DF0111978068D8
:102630008C93F8CF8091010182300CF0E3C28F5F60
:102640008093010180E10E941D0A9091010188237D
:1026500009F4F0C280912902819580932E02E091C5
:102660004606F09147062996FFAFEEAF29972090D6
:102670002602F09128022E96FFAF2E978F2F820D03
:102680008F5F20912902820F20912E02820F20E479
:1026900030E0281B310992300CF0D5C28AE090E07E
:1026A000A901481B590B63965FAF4EAF63976091CA
:1026B000A4017091A50125967FAF6EAF25970E946A
:1026C0000105B82EE82EF12C25964EAC5FAC25976F
:1026D0004E0C5F1C80912D0263960EAD1FAD63976B
:1026E000080F111D87FD1A95200E312E311CA09068
:1026F0002502CA2CD12CB6010D2C000C880B990B8D
:102700000E943D1A2DEC3CEC4CEC5EE30E94781AE2
:102710003B014C01B201052C000C880B990B0E9467
:102720003D1A9B01AC01C401B3010E94E71B0E944A
:10273000C51C2D966CAF7DAF8EAF9FAF2D979B2C98
:1027400073E07B1510F4B3E09B2E0E943105A92D98
:10275000B0E097012A1B3B0B9B2D991922303105C4
:102760000CF091E0E09127022E2F30E0482F50E04E
:10277000B9016E197F096C197D09641B750BEB1982
:10278000EA19E81B623071050CF0E1E025966EADA8
:102790007FAD25976A0F7B1F7A8369833C822B82EA
:1027A000892F90E0B201681B790B7E836D83388698
:1027B0002F825A864986B101681B790B7C876B870B
:1027C0005E864D86380173E0670E711C788A6F86CD
:1027D000C201039661969FAF8EAF61979A8B898BEA
:1027E0001C8B0B8BC40CD51CC60104979E8B8D8B48
:1027F000188F0F8B91E0C91AD108DA8EC98E7C8EA2
:102800006B8EDE8ECD8EF0E0C1018E1B9F0B98A3E8
:102810008F8FCE0EDF1EDAA2C9A23CA22BA2259674
:10282000EEADFFAD25972E0F3F1F21503109C90195
:10283000841B950B9EA38DA338A62FA23AA729A788
:10284000420D531D5CA74BA73EA72DA741012E9615
:10285000FFAD2E978F0E911C21E0821A910898AA45
:102860008FA625964EAD5FAD25975AAB49AB9CAA76
:102870008BAA5EAB4DABA20DB31DB8AFAFAB299623
:102880006EAD7FAD29977CAF6BAF82E491E09AAFDC
:1028900089AFAE01475C5F4F6EE0CE0101960E94AA
:1028A000930C2091260222502996EEADFFAD299778
:1028B000FC83EB8342E451E05A8349834091250233
:1028C0004650BE016F5F7F4F4B01A12CC12CEE24FF
:1028D000E39401E0B30161968EAD9FAD61970E94D4
:1028E000D80C40912602425021E0B3012B968EADC8
:1028F0009FAD2B970E94710B0E944705F82E1091F7
:102900002802C12ED12C0E9431056F2C712C96010A
:10291000281B310926193709181B1F1911501216C7
:1029200013060CF010E074E07F1508F046C02996FD
:102930008EAD9FAD29979C838B83E2E4F1E0FA830F
:10294000E983B1016C0D7D1D661977099E012F5F2A
:102950003F4F4901E2E0AE2EC12CE12C02E02F2DC9
:1029600044E025968EAD9FAD259703970E94D80C25
:1029700029964EAD5FAD29975C834B8362E471E08D
:102980007A83698360912802620D732D711D661927
:102990007709809127022596EEADFFAD2597E80FC8
:1029A000F11DCF01A12CF2E0CF2EA2E0EA2E00E033
:1029B0002F2D44E001970E94D80C143038F129964D
:1029C0004EAD5FAD29975C834B8362E471E07A83FF
:1029D00069830E943105B101680F711D8091270242
:1029E0002596EEADFFAD2597E80FF11DCF019E01B5
:1029F0002F5F3F4F4901A12CCC24C394EE24E394D4
:102A000000E0212F43E001970E94D80C109128028A
:102A1000163008F416E016501230E8F033E0230EBA
:102A2000311C21E0412FB101C2010E94710B21E054
:102A3000412FB1012B968EAD9FAD2B970E94710B4C
:102A400080912502840D952D911D21E0412FB1012A
:102A500001970E94710B00912C0210E060912702F7
:102A600070E0601B710B072E000C880B990B0E9405
:102A70003D1A6B017C0160912B0270E090E080E0D8
:102A80000E943D1A20E030E04FE753E40E94531CBF
:102A90009B01AC01C701B6010E94781A0E94CC1CB0
:102AA00070E07A836983600F711F7C836B83AE0152
:102AB0004F5F5F4F2F965FAF4EAF2F9765E272E08B
:102AC00029967FAF6EAF299780912E026396EEAD67
:102AD000FFAD6397E80FF11D87FDFA95C0902602C0
:102AE000CE0EDF2ED11CF1E0CF1AD1088091280242
:102AF000C80ED11C2F96EEADFFAD2F97E190F1904F
:102B00002F96FFAFEEAF2F9725962EAD3FAD2597B1
:102B1000E20EF31E2996EEADFFAD29974481B60172
:102B2000C7010E94460A2996EEADFFAD2997448160
:102B30004150042F10E0440F4F5FB601601B710B32
:102B400020E0C7010E94710BAA24A394B12CA01A03
:102B5000B10A512C412C401A510A440C551C712CBD
:102B6000612C88248394912C601671060CF06EC041
:102B7000B7FC07C001501109F2E04F0E511CA40C24
:102B8000B51C2FEF621A720A32E0830E911CA80C5A
:102B9000B91C302E330C339460963FAE609720E022
:102BA000432D1601201A310AB101C3018E0D9F1D5C
:102BB0000E94710BA601461957092B965FAF4EAFC5
:102BC0002B9720E0482D2B966EAD7FAD2B97C7013C
:102BD000800F911F0E94710B20E060964FAD6097AF
:102BE000B101C701861997090E94710B20E0482D99
:102BF0002B966EAD7FAD2B97C701801B910B0E946A
:102C0000710BB2CF80E80E941D0A882351F0109208
:102C100001018BEE98E00E94EA0981E08093A60111
:102C200011CD80E10E941D0A882309F40BCD89EDA6
:102C300098E0F1CF923024F48091290286950DCD51
:102C400010922E020CCD90E080E02ACD2996EEADB8
:102C5000FFAD29974481453008F445E04550B60161
:102C6000C7010E94460A29962EAD3FAD29972F5FD6
:102C70003F4F29963FAF2EAF299723964EAD5FADBC
:102C800023972F966EAD7FAD2F974617570709F004
:102C90001BCF80912D02082E000C990B019762E04A
:102CA00070E00E94FB1C80932D0288E00E94120AB3
:102CB000882399F08091020191E089278093020195
:102CC000882309F4B6C183E698E00E94EA091092CD
:102CD000A3011092A2011092A60184E00E941D0A95
:102CE000882309F4C0C00E94020A83FDBCC0009181
:102CF00027020E94AE1927966CAF7DAF8EAF9FAFB3
:102D000027970E94AE194B015C010E94AE1922E583
:102D100030E040E050E00E944C1B6B017C01E2E19E
:102D2000CE0ED11CE11CF11C0E94AE192B013C01FE
:102D30000E94AE192BE130E040E050E00E944C1BB5
:102D4000635FC61608F46C2D60932502C301B201BF
:102D500023E130E040E050E00E944C1B6A5F7F4F6F
:102D60008F4F9F4F60932602C0922702C501B40186
:102D70002BE130E040E050E00E944C1B685F7F4F49
:102D80008F4F9F4F6093280227966CAD7DAD8EAD1F
:102D90009FAD279726E130E040E050E00E944C1BB9
:102DA0006D5F7F4F8F4F9F4F70E02C2D30E0C9013A
:102DB000029797FD019695958795861797070CF4CE
:102DC000BC016093290260932A028FE780932B0253
:102DD000C0922C020E94AE192FEF30E040E050E08C
:102DE0000E944C1B60932B0280902702912CB12CE7
:102DF000A12CC0902902C394CC0CD12CF12CE12C35
:102E0000C814D904EA04FB048CF48C189D08AE089D
:102E1000BF0841F00E94AE19A50194010E944C1B0D
:102E20004B015C01C80CD91CEA1CFB1CC0922C0293
:102E3000602F8091A4019091A5010E94E3049093DA
:102E4000A5018093A40181E598E00E94EA0981E050
:102E50008093A6018091AD019091AE01019690936F
:102E6000AE018093AD0180E20E941D0A882301F12A
:102E70002091A4013091A5012550310940912702EC
:102E80008AE090E0841B91098217930734F4C9010A
:102E90002637310514F086E790E09093A5018093E2
:102EA000A4018FE298E00E94EA0981E08093A601E4
:102EB00080E40E941D0A882301F12091A401309131
:102EC000A5012B5F3F4F409127028AE090E0841BD1
:102ED00091098217930734F4C9012637310514F09C
:102EE00086E790E09093A5018093A4018FE298E09B
:102EF0000E94EA0981E08093A6018CE00E941D0AED
:102F0000882309F453C080E10E94120A882329F122
:102F1000609127028DE08093250286E0809326024F
:102F200082E18093270288E08093280293E09093C7
:102F3000290290932A029FE790932B0280932C0200
:102F40008091A4019091A5010E94E3049093A501B2
:102F50008093A40181E08093A60180E80E94120A78
:102F6000882321F16091270288E28093250289E17C
:102F70008093260294E69093270223E2209328026E
:102F80008093290280932A028FE780932B029093EB
:102F90002C028091A4019091A5010E94E3049093DA
:102FA000A5018093A40181E08093A6018091020194
:102FB000882309F4D2C0E9E7F6E0F490EAE7F6E006
:102FC000E4910F2D10E00737110514F027E7F22EDA
:102FD00091E08E2F877009F490E0E695E695E695EE
:102FE000E92EEE0EF8E0FE1510F498E0E92ED12C53
:102FF0006BE776E049E050E0ED1459F1DA01A15DAC
:10300000BD4F30E020E02F15F0F4FB01E20FF31F7D
:10301000E491F4E0EF9FC0011124D7FE0DC0FD0143
:10302000E058FF4F8081892B80832F5F3F4F11969F
:10303000EACF0E94390951CEEC91E82BEC93E6E0FF
:10304000ED159CF3ECCF600F711F40585F4FD39488
:10305000D3CF8091A2019091A3014D9724F4809148
:10306000A601882341F18AE190E090933D06809388
:103070003C0690933B0680933A0681E290E0909361
:103080003F0680933E068AE491E00E94560D8FE150
:1030900090E090933D0680933C0690933B0680938E
:1030A0003A0686E290E090933F0680933E068AE5DA
:1030B00091E00E94560D8091A2019091A301C797C3
:1030C00024F48091A6018823C9F122E030E03093F6
:1030D0003D0620933C0630933B0620933A0689E355
:1030E000E82EF12CF0923F06E0923E0688E691E051
:1030F0000E94560D08E510E010933D0600933C0633
:1031000010933B0600933A0684E390E090933F06C9
:1031100080933E068DE691E00E94560D10933D0689
:1031200000933C0610933B0600933A06F0923F064C
:10313000E0923E0686E791E00E94560D8091A20142
:103140009091A301873391052CF401969093A301EC
:103150008093A2010E945D051CCA41E050E050939B
:103160003D0640933C0650933B0640933A065093ED
:103170003F0640933E068091AD019091AE011AAE9C
:1031800019AE1CAE1BAE1EAE1DAE4AE0BE016F5F97
:103190007F4F0E94061A2196EEADFFAD2197019058
:1031A0000020E9F731978F0121966EAD7FAD219711
:1031B000061B170BB801CE01C9960E94630D29ADFD
:1031C0003AAD81115FC02115310519F0C9010E9486
:1031D000C51D1AAE19AE1EAE1DAE1CAE1BAE1A82B8
:1031E00019821C821B821E821D8266E070E0CE0165
:1031F00001960E94630D29813A8181114CC02115ED
:10320000310519F0C9010E94C51D1A8219821E825A
:103210001D821C821B82E9ACFAACE114F10409F4B2
:1032200044C00DAD1EAD01151105B1F08D819E811B
:10323000080F191FB801CE0101960E94630D882363
:10324000A1F129813A818D819E81B701820F931F5F
:103250000E94141F1E830D834D815E8169817A81D6
:103260008FE296E00E94020789819A81009711F00F
:103270000E94C51D89AD9AAD009709F46BCF0E94DD
:10328000C51D68CF1EAF0DAFBE016F5F7F4FC90177
:103290000E94141FA4CF86E090E09E838D836FE789
:1032A00071E0C9010E94141FB6CF89819A810097ED
:1032B00011F00E94C51D1A8219821E821D821C8275
:1032C0001B82CACF8F929F92AF92BF92CF92DF9212
:1032D000EF92FF92CF93DF93EC01688179818A812D
:1032E0009B81611571058105910521F464E279EDF9
:1032F0008BE597E02DE133EF41E050E00E944C1B5D
:1033000049015A019B01AC01A7EAB1E40E946B1B81
:103310006B017C01ACEEB4EFA50194010E94791B16
:10332000C60ED71EE81EF91EF7FE06C081E0C81AB9
:10333000D108E10880E8F80AC882D982EA82FB82D3
:10334000C701B6019F77DF91CF91FF90EF90DF909B
:10335000CF90BF90AF909F908F9008958F929F9243
:10336000AF92BF92CF92DF92EF92FF9260910F01E6
:1033700070911001809111019091120161157105F8
:103380008105910521F464E279ED8BE597E02DE16B
:1033900033EF41E050E00E944C1B49015A019B0170
:1033A000AC01A7EAB1E40E946B1B6B017C01ACEE9F
:1033B000B4EFA50194010E94791BC60ED71EE81E2A
:1033C000F91EF7FE06C081E0C81AD108E10880E8BE
:1033D000F80AC0920F01D0921001E0921101F09210
:1033E0001201C701B6019F77FF90EF90DF90CF9059
:1033F000BF90AF909F908F90089560930F0170934E
:10340000100180931101909312010895BB274A3057
:1034100031F4992322F4BDE2909581959F4F0C944D
:10342000121ABB27FB015527AA27880F991FAA1F2D
:10343000A41710F0A41B83955051B9F7A05DAA33CF
:1034400008F0A95DA193009779F7B111B19311929A
:10345000CB010C942B1ADC01FC01672F71917723AF
:10346000E1F7329704C07C916D9370836291AE173F
:10347000BF07C8F30895E89409C097FB3EF4909500
:103480008095709561957F4F8F4F9F4F9923A9F03D
:10349000F92F96E9BB279395F695879577956795CC
:1034A000B795F111F8CFFAF4BB0F11F460FF1BC010
:1034B0006F5F7F4F8F4F9F4F16C0882311F096E9A3
:1034C00011C0772321F09EE8872F762F05C0662351
:1034D00071F096E8862F70E060E02AF09A95660F0A
:1034E000771F881FDAF7880F9695879597F90895C3
:1034F0000E948B1A0C94FC1A0E94EE1A38F00E945B
:10350000F51A20F0952311F00C94E51A0C94EB1A9F
:1035100011240C94301B0E940D1B70F3959FC1F376
:10352000950F50E0551F629FF001729FBB27F00D71
:10353000B11D639FAA27F00DB11DAA1F649F6627C6
:10354000B00DA11D661F829F2227B00DA11D621F15
:10355000739FB00DA11D621F839FA00D611D221FCF
:10356000749F3327A00D611D231F849F600D211DB3
:10357000822F762F6A2F11249F5750409AF0F1F036
:1035800088234AF0EE0FFF1FBB1F661F771F881F9F
:1035900091505040A9F79E3F510580F00C94E51AD8
:1035A0000C94301B5F3FE4F3983ED4F386957795F7
:1035B0006795B795F795E7959F5FC1F7FE2B880F45
:1035C000911D9695879597F9089597F99F6780E8DB
:1035D00070E060E008959FEF80EC089500240A9465
:1035E0001616170618060906089500240A941216DE
:1035F0001306140605060895092E0394000C11F411
:10360000882352F0BB0F40F4BF2B11F460FF04C0BD
:103610006F5F7F4F8F4F9F4F089557FD9058440F16
:10362000551F59F05F3F71F04795880F97FB991F21
:1036300061F09F3F79F087950895121613061406DE
:10364000551FF2CF4695F1DF08C01616170618066B
:10365000991FF1CF86957105610508940895E89446
:10366000BB2766277727CB0197F90895F999FECFF5
:1036700092BD81BDF89A992780B50895262FF999B2
:10368000FECF1FBA92BD81BD20BD0FB6F894FA9A45
:10369000F99A0FBE01960895052E97FB1EF400942B
:1036A0000E94631B57FD07D00E94B51B07FC03D087
:1036B0004EF40C94631B50954095309521953F4FE7
:1036C0004F4F5F4F089590958095709561957F4F0E
:1036D0008F4F9F4F08950E94D71BA59F900DB49FB9
:1036E000900DA49F800D911D11240895B7FF0C9497
:1036F0006B1B0E946B1B821B930B08952F923F92B2
:103700004F925F926F927F928F929F92AF92BF92F1
:10371000CF92DF92EF92FF920F931F93CF93DF939D
:10372000CDB7DEB7CA1BDB0B0FB6F894DEBF0FBEFA
:10373000CDBF09942A88398848885F846E847D8447
:103740008C849B84AA84B984C884DF80EE80FD8049
:103750000C811B81AA81B981CE0FD11D0FB6F894BF
:10376000DEBF0FBECDBFED010895A1E21A2EAA1B48
:10377000BB1BFD010DC0AA1FBB1FEE1FFF1FA21721
:10378000B307E407F50720F0A21BB30BE40BF50B1E
:10379000661F771F881F991F1A9469F760957095A7
:1037A000809590959B01AC01BD01CF010895A29F2A
:1037B000B001B39FC001A39F700D811D1124911D05
:1037C000B29F700D811D1124911D08955058BB2783
:1037D000AA270E94FE1B0C94FC1A0E94EE1A38F0D5
:1037E0000E94F51A20F039F49F3F19F426F40C9446
:1037F000EB1A0EF4E095E7FB0C94E51AE92F0E9412
:103800000D1B58F3BA17620773078407950720F05A
:1038100079F4A6F50C942F1B0EF4E0950B2EBA2F1D
:10382000A02D0B01B90190010C01CA01A0011124C6
:10383000FF27591B99F0593F50F4503E68F11A1672
:10384000F040A22F232F342F4427585FF3CF469503
:1038500037952795A795F0405395C9F77EF41F1625
:10386000BA0B620B730B840BBAF09150A1F0FF0FEF
:10387000BB1F661F771F881FC2F70EC0BA0F621FDB
:10388000731F841F48F4879577956795B795F795CB
:103890009E3F08F0B0CF9395880F08F09927EE0F60
:1038A0009795879508950E94671C0C94FC1A0E94B6
:1038B000F51A58F00E94EE1A40F029F45F3F29F003
:1038C0000C94E51A51110C94301B0C94EB1A0E94C5
:1038D0000D1B68F39923B1F3552391F3951B550BF9
:1038E000BB27AA2762177307840738F09F5F5F4FD3
:1038F000220F331F441FAA1FA9F335D00E2E3AF012
:10390000E0E832D091505040E695001CCAF72BD029
:10391000FE2F29D0660F771F881FBB1F261737077A
:103920004807AB07B0E809F0BB0B802DBF01FF27AC
:1039300093585F4F3AF09E3F510578F00C94E51A8A
:103940000C94301B5F3FE4F3983ED4F38695779553
:103950006795B795F7959F5FC9F7880F911D969565
:10396000879597F90895E1E0660F771F881FBB1FC1
:10397000621773078407BA0720F0621B730B840B6E
:10398000BA0BEE1F88F7E09508950E94CC1C68944E
:10399000B1110C94301B08950E94151B88F09F579D
:1039A00098F0B92F9927B751B0F0E1F0660F771F63
:1039B000881F991F1AF0BA95C9F714C0B13091F059
:1039C0000E942F1BB1E008950C942F1B672F782FB6
:1039D0008827B85F39F0B93FCCF38695779567951E
:1039E000B395D9F73EF490958095709561957F4F8A
:1039F0008F4F9F4F089597FB072E16F4009407D022
:103A000077FD09D00E940F1D07FC05D03EF490956C
:103A100081959F4F0895709561957F4F0895AA1BDA
:103A2000BB1B51E107C0AA1FBB1FA617B70710F0A9
:103A3000A61BB70B881F991F5A95A9F780959095DB
:103A4000BC01CD010895EE0FFF1F0590F491E02D0C
:103A500009940F931F93CF93DF938230910510F455
:103A600082E090E0E0914A06F0914B0630E020E0E1
:103A7000B0E0A0E0309799F42115310509F44AC06F
:103A8000281B390B24303105D8F58A819B816115BB
:103A9000710589F1FB0193838283FE0111C040818E
:103AA00051810281138148175907E0F048175907DF
:103AB00099F4109761F012960C93129713961C9339
:103AC0003296CF01DF91CF911F910F91089500930E
:103AD0004A0610934B06F4CF2115310551F04217D9
:103AE000530738F0A901DB019A01BD01DF01F8019C
:103AF000C1CFEF01F9CF90934B0680934A06CDCF0B
:103B0000FE01E20FF31F8193919322503109398313
:103B10002883D7CF2091480630914906232B41F4C2
:103B200020911501309116013093490620934806E3
:103B300020911301309114012115310541F42DB765
:103B40003EB74091170150911801241B350BE091AD
:103B50004806F0914906E217F307A0F42E1B3F0B2D
:103B60002817390778F0AC014E5F5F4F24173507EF
:103B700048F04E0F5F1F50934906409348068193CB
:103B800091939FCFF0E0E0E09CCFCF93DF9300973D
:103B9000E9F0FC01329713821282A0914A06B0919B
:103BA0004B06ED0130E020E01097A1F42081318137
:103BB000820F931F20914806309149062817390734
:103BC00009F061C0F0934906E0934806DF91CF9178
:103BD0000895EA01CE17DF07E8F54A815B819E016F
:103BE00041155105B1F7E901FB83EA8349915991E8
:103BF000C40FD51FEC17FD0761F4808191810296F7
:103C0000840F951FE90199838883828193819B8327
:103C10008A83F0E0E0E012968D919C9113970097D3
:103C2000B9F52D913C911197CD010296820F931F0A
:103C300020914806309149062817390739F6309700
:103C400051F510924B0610924A06B0934906A09384
:103C50004806BCCFD383C28340815181840F951F16
:103C6000C817D90761F44E5F5F4F88819981480F6B
:103C7000591F518340838A819B81938382832115BD
:103C8000310509F0B0CFF0934B06E0934A069ECF82
:103C9000FD01DC01C0CF13821282D7CFB0E0A0E0DB
:103CA000E4E5FEE10C94801B8C01009751F4CB01FC
:103CB0000E94291D8C01C801CDB7DEB7E0E10C944C
:103CC0009C1BFC01E60FF71F9C0122503109E217F3
:103CD000F30708F49DC0D901CD91DC911197C61767
:103CE000D70798F0C530D10530F3CE010497861779
:103CF000970708F3C61BD70B2297C193D1936D93F7
:103D00007C93CF010E94C51DD6CF5B01AC1ABD0AC2
:103D10004C018C0E9D1EA0914A06B0914B06512C71
:103D2000412CF12CE12C109731F5809148069091AF
:103D300049068815990509F05CC04616570608F033
:103D400058C08091130190911401009741F48DB7F0
:103D50009EB74091170150911801841B950BE817ED
:103D6000F90708F055C0F0934906E0934806F901B9
:103D700071836083A0CF8D919C91119712966C9066
:103D8000129713967C901397A815B90559F56C01F5
:103D900042E0C40ED11CCA14DB0420F1AC014A1964
:103DA0005B09DA011296159780F062827382518363
:103DB0004083D9016D937C93E114F10471F0D70134
:103DC0001396FC93EE93129776CF22968C0F9D1F3D
:103DD000F90191838083F301EFCFF0934B06E093D9
:103DE0004A0669CF4816590608F42C017D01D30113
:103DF0009ACFCB010E94291D7C01009749F0AE01AA
:103E0000B8010E940B1FC8010E94C51D870153CF36
:103E100010E000E050CFFB01DC0102C001900D92E8
:103E200041505040D8F70895FB01DC0101900D92FC
:0A3E30000020E1F70895F894FFCF99
:103E3A00100201FFFFFFFF00E10000000000000187
:103E4A0000000000004C06800000C18081000000D4
:103E5A0000000000BC058707DD05D2052306E10541
:103E6A00FF05000000007A080207530D520D0000FA
:103E7A0000000E0B0207530D520D414E59204B49BB
:103E8A004E44204F4620414E590043415220414E54
:103E9A004420545255434B003230323400666F721C
:103EAA003A64657369006C75763A646164610053BB
:063EBA00434F52453A009F
:00000001FF
